{
  "_format": "hh-sol-artifact-1",
  "contractName": "TokenSwap",
  "sourceName": "contracts/TokenSwap.sol",
  "abi": [
    {
      "inputs": [
        {
          "internalType": "address",
          "name": "_token1",
          "type": "address"
        },
        {
          "internalType": "address",
          "name": "_token2",
          "type": "address"
        },
        {
          "internalType": "uint256",
          "name": "_rate1to2",
          "type": "uint256"
        },
        {
          "internalType": "uint256",
          "name": "_rate2to1",
          "type": "uint256"
        }
      ],
      "stateMutability": "nonpayable",
      "type": "constructor"
    },
    {
      "inputs": [
        {
          "internalType": "address",
          "name": "owner",
          "type": "address"
        }
      ],
      "name": "OwnableInvalidOwner",
      "type": "error"
    },
    {
      "inputs": [
        {
          "internalType": "address",
          "name": "account",
          "type": "address"
        }
      ],
      "name": "OwnableUnauthorizedAccount",
      "type": "error"
    },
    {
      "anonymous": false,
      "inputs": [
        {
          "indexed": true,
          "internalType": "address",
          "name": "previousOwner",
          "type": "address"
        },
        {
          "indexed": true,
          "internalType": "address",
          "name": "newOwner",
          "type": "address"
        }
      ],
      "name": "OwnershipTransferred",
      "type": "event"
    },
    {
      "anonymous": false,
      "inputs": [
        {
          "indexed": true,
          "internalType": "address",
          "name": "user",
          "type": "address"
        },
        {
          "indexed": false,
          "internalType": "address",
          "name": "fromToken",
          "type": "address"
        },
        {
          "indexed": false,
          "internalType": "address",
          "name": "toToken",
          "type": "address"
        },
        {
          "indexed": false,
          "internalType": "uint256",
          "name": "amountIn",
          "type": "uint256"
        },
        {
          "indexed": false,
          "internalType": "uint256",
          "name": "amountOut",
          "type": "uint256"
        }
      ],
      "name": "Swapped",
      "type": "event"
    },
    {
      "inputs": [],
      "name": "owner",
      "outputs": [
        {
          "internalType": "address",
          "name": "",
          "type": "address"
        }
      ],
      "stateMutability": "view",
      "type": "function"
    },
    {
      "inputs": [],
      "name": "rateToken1ToToken2",
      "outputs": [
        {
          "internalType": "uint256",
          "name": "",
          "type": "uint256"
        }
      ],
      "stateMutability": "view",
      "type": "function"
    },
    {
      "inputs": [],
      "name": "rateToken2ToToken1",
      "outputs": [
        {
          "internalType": "uint256",
          "name": "",
          "type": "uint256"
        }
      ],
      "stateMutability": "view",
      "type": "function"
    },
    {
      "inputs": [],
      "name": "renounceOwnership",
      "outputs": [],
      "stateMutability": "nonpayable",
      "type": "function"
    },
    {
      "inputs": [
        {
          "internalType": "uint256",
          "name": "_rate1to2",
          "type": "uint256"
        },
        {
          "internalType": "uint256",
          "name": "_rate2to1",
          "type": "uint256"
        }
      ],
      "name": "setExchangeRates",
      "outputs": [],
      "stateMutability": "nonpayable",
      "type": "function"
    },
    {
      "inputs": [
        {
          "internalType": "uint256",
          "name": "amountIn",
          "type": "uint256"
        }
      ],
      "name": "swapToken1ForToken2",
      "outputs": [
        {
          "internalType": "uint256",
          "name": "",
          "type": "uint256"
        }
      ],
      "stateMutability": "nonpayable",
      "type": "function"
    },
    {
      "inputs": [
        {
          "internalType": "uint256",
          "name": "amountIn",
          "type": "uint256"
        }
      ],
      "name": "swapToken2ForToken1",
      "outputs": [
        {
          "internalType": "uint256",
          "name": "",
          "type": "uint256"
        }
      ],
      "stateMutability": "nonpayable",
      "type": "function"
    },
    {
      "inputs": [],
      "name": "token1",
      "outputs": [
        {
          "internalType": "contract IERC20",
          "name": "",
          "type": "address"
        }
      ],
      "stateMutability": "view",
      "type": "function"
    },
    {
      "inputs": [],
      "name": "token2",
      "outputs": [
        {
          "internalType": "contract IERC20",
          "name": "",
          "type": "address"
        }
      ],
      "stateMutability": "view",
      "type": "function"
    },
    {
      "inputs": [
        {
          "internalType": "address",
          "name": "newOwner",
          "type": "address"
        }
      ],
      "name": "transferOwnership",
      "outputs": [],
      "stateMutability": "nonpayable",
      "type": "function"
    },
    {
      "inputs": [
        {
          "internalType": "address",
          "name": "token",
          "type": "address"
        },
        {
          "internalType": "uint256",
          "name": "amount",
          "type": "uint256"
        }
      ],
      "name": "withdrawTokens",
      "outputs": [],
      "stateMutability": "nonpayable",
      "type": "function"
    }
  ],
  "bytecode": "0x60806040523480156200001157600080fd5b5060405162001815380380620018158339818101604052810190620000379190620003c2565b33600073ffffffffffffffffffffffffffffffffffffffff168173ffffffffffffffffffffffffffffffffffffffff1603620000ad5760006040517f1e4fbdf7000000000000000000000000000000000000000000000000000000008152600401620000a4919062000445565b60405180910390fd5b620000be816200025960201b60201c565b50600073ffffffffffffffffffffffffffffffffffffffff168473ffffffffffffffffffffffffffffffffffffffff16141580156200012a5750600073ffffffffffffffffffffffffffffffffffffffff168373ffffffffffffffffffffffffffffffffffffffff1614155b6200016c576040517f08c379a00000000000000000000000000000000000000000000000000000000081526004016200016390620004c3565b60405180910390fd5b6000821180156200017d5750600081115b620001bf576040517f08c379a0000000000000000000000000000000000000000000000000000000008152600401620001b69062000535565b60405180910390fd5b83600160006101000a81548173ffffffffffffffffffffffffffffffffffffffff021916908373ffffffffffffffffffffffffffffffffffffffff16021790555082600260006101000a81548173ffffffffffffffffffffffffffffffffffffffff021916908373ffffffffffffffffffffffffffffffffffffffff16021790555081600381905550806004819055505050505062000557565b60008060009054906101000a900473ffffffffffffffffffffffffffffffffffffffff169050816000806101000a81548173ffffffffffffffffffffffffffffffffffffffff021916908373ffffffffffffffffffffffffffffffffffffffff1602179055508173ffffffffffffffffffffffffffffffffffffffff168173ffffffffffffffffffffffffffffffffffffffff167f8be0079c531659141344cd1fd0a4f28419497f9722a3daafe3b4186f6b6457e060405160405180910390a35050565b600080fd5b600073ffffffffffffffffffffffffffffffffffffffff82169050919050565b60006200034f8262000322565b9050919050565b620003618162000342565b81146200036d57600080fd5b50565b600081519050620003818162000356565b92915050565b6000819050919050565b6200039c8162000387565b8114620003a857600080fd5b50565b600081519050620003bc8162000391565b92915050565b60008060008060808587031215620003df57620003de6200031d565b5b6000620003ef8782880162000370565b9450506020620004028782880162000370565b93505060406200041587828801620003ab565b92505060606200042887828801620003ab565b91505092959194509250565b6200043f8162000342565b82525050565b60006020820190506200045c600083018462000434565b92915050565b600082825260208201905092915050565b7f496e76616c696420746f6b656e20616464726573730000000000000000000000600082015250565b6000620004ab60158362000462565b9150620004b88262000473565b602082019050919050565b60006020820190508181036000830152620004de816200049c565b9050919050565b7f496e76616c69642065786368616e676520726174650000000000000000000000600082015250565b60006200051d60158362000462565b91506200052a82620004e5565b602082019050919050565b6000602082019050818103600083015262000550816200050e565b9050919050565b6112ae80620005676000396000f3fe608060405234801561001057600080fd5b50600436106100a95760003560e01c8063b209acc311610071578063b209acc314610140578063d21220a71461015e578063e637a44b1461017c578063f2fde38b14610198578063f7b364f7146101b4578063fa7fbf21146101d2576100a9565b806306b091f9146100ae57806325be124e146100ca57806348e30181146100e8578063715018a6146101185780638da5cb5b14610122575b600080fd5b6100c860048036038101906100c39190610c5c565b610202565b005b6100d26102d2565b6040516100df9190610cfb565b60405180910390f35b61010260048036038101906100fd9190610d16565b6102f8565b60405161010f9190610d52565b60405180910390f35b610120610605565b005b61012a610619565b6040516101379190610d7c565b60405180910390f35b610148610642565b6040516101559190610d52565b60405180910390f35b610166610648565b6040516101739190610cfb565b60405180910390f35b61019660048036038101906101919190610d97565b61066e565b005b6101b260048036038101906101ad9190610dd7565b6106d7565b005b6101bc61075d565b6040516101c99190610d52565b60405180910390f35b6101ec60048036038101906101e79190610d16565b610763565b6040516101f99190610d52565b60405180910390f35b61020a610a70565b8173ffffffffffffffffffffffffffffffffffffffff1663a9059cbb61022e610619565b836040518363ffffffff1660e01b815260040161024c929190610e04565b6020604051808303816000875af115801561026b573d6000803e3d6000fd5b505050506040513d601f19601f8201168201806040525081019061028f9190610e65565b6102ce576040517f08c379a00000000000000000000000000000000000000000000000000000000081526004016102c590610eef565b60405180910390fd5b5050565b600260009054906101000a900473ffffffffffffffffffffffffffffffffffffffff1681565b600080821161033c576040517f08c379a000000000000000000000000000000000000000000000000000000000815260040161033390610f5b565b60405180910390fd5b6000670de0b6b3a7640000600354846103559190610faa565b61035f919061101b565b9050600081116103a4576040517f08c379a000000000000000000000000000000000000000000000000000000000815260040161039b90611098565b60405180910390fd5b600160009054906101000a900473ffffffffffffffffffffffffffffffffffffffff1673ffffffffffffffffffffffffffffffffffffffff166323b872dd3330866040518463ffffffff1660e01b8152600401610403939291906110b8565b6020604051808303816000875af1158015610422573d6000803e3d6000fd5b505050506040513d601f19601f820116820180604052508101906104469190610e65565b610485576040517f08c379a000000000000000000000000000000000000000000000000000000000815260040161047c9061113b565b60405180910390fd5b600260009054906101000a900473ffffffffffffffffffffffffffffffffffffffff1673ffffffffffffffffffffffffffffffffffffffff1663a9059cbb33836040518363ffffffff1660e01b81526004016104e2929190610e04565b6020604051808303816000875af1158015610501573d6000803e3d6000fd5b505050506040513d601f19601f820116820180604052508101906105259190610e65565b610564576040517f08c379a000000000000000000000000000000000000000000000000000000000815260040161055b906111a7565b60405180910390fd5b3373ffffffffffffffffffffffffffffffffffffffff167f6782190c91d4a7e8ad2a867deed6ec0a970cab8ff137ae2bd4abd92b3810f4d3600160009054906101000a900473ffffffffffffffffffffffffffffffffffffffff16600260009054906101000a900473ffffffffffffffffffffffffffffffffffffffff1686856040516105f494939291906111c7565b60405180910390a280915050919050565b61060d610a70565b6106176000610af7565b565b60008060009054906101000a900473ffffffffffffffffffffffffffffffffffffffff16905090565b60035481565b600160009054906101000a900473ffffffffffffffffffffffffffffffffffffffff1681565b610676610a70565b6000821180156106865750600081115b6106c5576040517f08c379a00000000000000000000000000000000000000000000000000000000081526004016106bc90611258565b60405180910390fd5b81600381905550806004819055505050565b6106df610a70565b600073ffffffffffffffffffffffffffffffffffffffff168173ffffffffffffffffffffffffffffffffffffffff16036107515760006040517f1e4fbdf70000000000000000000000000000000000000000000000000000000081526004016107489190610d7c565b60405180910390fd5b61075a81610af7565b50565b60045481565b60008082116107a7576040517f08c379a000000000000000000000000000000000000000000000000000000000815260040161079e90610f5b565b60405180910390fd5b6000670de0b6b3a7640000600454846107c09190610faa565b6107ca919061101b565b90506000811161080f576040517f08c379a000000000000000000000000000000000000000000000000000000000815260040161080690611098565b60405180910390fd5b600260009054906101000a900473ffffffffffffffffffffffffffffffffffffffff1673ffffffffffffffffffffffffffffffffffffffff166323b872dd3330866040518463ffffffff1660e01b815260040161086e939291906110b8565b6020604051808303816000875af115801561088d573d6000803e3d6000fd5b505050506040513d601f19601f820116820180604052508101906108b19190610e65565b6108f0576040517f08c379a00000000000000000000000000000000000000000000000000000000081526004016108e7906111a7565b60405180910390fd5b600160009054906101000a900473ffffffffffffffffffffffffffffffffffffffff1673ffffffffffffffffffffffffffffffffffffffff1663a9059cbb33836040518363ffffffff1660e01b815260040161094d929190610e04565b6020604051808303816000875af115801561096c573d6000803e3d6000fd5b505050506040513d601f19601f820116820180604052508101906109909190610e65565b6109cf576040517f08c379a00000000000000000000000000000000000000000000000000000000081526004016109c69061113b565b60405180910390fd5b3373ffffffffffffffffffffffffffffffffffffffff167f6782190c91d4a7e8ad2a867deed6ec0a970cab8ff137ae2bd4abd92b3810f4d3600260009054906101000a900473ffffffffffffffffffffffffffffffffffffffff16600160009054906101000a900473ffffffffffffffffffffffffffffffffffffffff168685604051610a5f94939291906111c7565b60405180910390a280915050919050565b610a78610bbb565b73ffffffffffffffffffffffffffffffffffffffff16610a96610619565b73ffffffffffffffffffffffffffffffffffffffff1614610af557610ab9610bbb565b6040517f118cdaa7000000000000000000000000000000000000000000000000000000008152600401610aec9190610d7c565b60405180910390fd5b565b60008060009054906101000a900473ffffffffffffffffffffffffffffffffffffffff169050816000806101000a81548173ffffffffffffffffffffffffffffffffffffffff021916908373ffffffffffffffffffffffffffffffffffffffff1602179055508173ffffffffffffffffffffffffffffffffffffffff168173ffffffffffffffffffffffffffffffffffffffff167f8be0079c531659141344cd1fd0a4f28419497f9722a3daafe3b4186f6b6457e060405160405180910390a35050565b600033905090565b600080fd5b600073ffffffffffffffffffffffffffffffffffffffff82169050919050565b6000610bf382610bc8565b9050919050565b610c0381610be8565b8114610c0e57600080fd5b50565b600081359050610c2081610bfa565b92915050565b6000819050919050565b610c3981610c26565b8114610c4457600080fd5b50565b600081359050610c5681610c30565b92915050565b60008060408385031215610c7357610c72610bc3565b5b6000610c8185828601610c11565b9250506020610c9285828601610c47565b9150509250929050565b6000819050919050565b6000610cc1610cbc610cb784610bc8565b610c9c565b610bc8565b9050919050565b6000610cd382610ca6565b9050919050565b6000610ce582610cc8565b9050919050565b610cf581610cda565b82525050565b6000602082019050610d106000830184610cec565b92915050565b600060208284031215610d2c57610d2b610bc3565b5b6000610d3a84828501610c47565b91505092915050565b610d4c81610c26565b82525050565b6000602082019050610d676000830184610d43565b92915050565b610d7681610be8565b82525050565b6000602082019050610d916000830184610d6d565b92915050565b60008060408385031215610dae57610dad610bc3565b5b6000610dbc85828601610c47565b9250506020610dcd85828601610c47565b9150509250929050565b600060208284031215610ded57610dec610bc3565b5b6000610dfb84828501610c11565b91505092915050565b6000604082019050610e196000830185610d6d565b610e266020830184610d43565b9392505050565b60008115159050919050565b610e4281610e2d565b8114610e4d57600080fd5b50565b600081519050610e5f81610e39565b92915050565b600060208284031215610e7b57610e7a610bc3565b5b6000610e8984828501610e50565b91505092915050565b600082825260208201905092915050565b7f5769746864726177206661696c65640000000000000000000000000000000000600082015250565b6000610ed9600f83610e92565b9150610ee482610ea3565b602082019050919050565b60006020820190508181036000830152610f0881610ecc565b9050919050565b7f416d6f756e74206d7573742062652067726561746572207468616e207a65726f600082015250565b6000610f45602083610e92565b9150610f5082610f0f565b602082019050919050565b60006020820190508181036000830152610f7481610f38565b9050919050565b7f4e487b7100000000000000000000000000000000000000000000000000000000600052601160045260246000fd5b6000610fb582610c26565b9150610fc083610c26565b9250828202610fce81610c26565b91508282048414831517610fe557610fe4610f7b565b5b5092915050565b7f4e487b7100000000000000000000000000000000000000000000000000000000600052601260045260246000fd5b600061102682610c26565b915061103183610c26565b92508261104157611040610fec565b5b828204905092915050565b7f5377617020616d6f756e7420746f6f206c6f7700000000000000000000000000600082015250565b6000611082601383610e92565b915061108d8261104c565b602082019050919050565b600060208201905081810360008301526110b181611075565b9050919050565b60006060820190506110cd6000830186610d6d565b6110da6020830185610d6d565b6110e76040830184610d43565b949350505050565b7f546f6b656e31207472616e73666572206661696c656400000000000000000000600082015250565b6000611125601683610e92565b9150611130826110ef565b602082019050919050565b6000602082019050818103600083015261115481611118565b9050919050565b7f546f6b656e32207472616e73666572206661696c656400000000000000000000600082015250565b6000611191601683610e92565b915061119c8261115b565b602082019050919050565b600060208201905081810360008301526111c081611184565b9050919050565b60006080820190506111dc6000830187610d6d565b6111e96020830186610d6d565b6111f66040830185610d43565b6112036060830184610d43565b95945050505050565b7f496e76616c69642065786368616e676520726174650000000000000000000000600082015250565b6000611242601583610e92565b915061124d8261120c565b602082019050919050565b6000602082019050818103600083015261127181611235565b905091905056fea264697066735822122075f58c976926f51ad8e774eebf4771c6f4eeafcc438b3222f8019187651fb32764736f6c63430008140033",
  "linkReferences": {},
  "deployedLinkReferences": {}
}